{
  "_format": "hh-sol-artifact-1",
  "contractName": "Stillwinter",
  "sourceName": "contracts/Stillwinter.sol",
  "abi": [
    {
      "inputs": [],
      "name": "getData",
      "outputs": [
        {
          "internalType": "string",
          "name": "",
          "type": "string"
        }
      ],
      "stateMutability": "view",
      "type": "function"
    },
    {
      "inputs": [],
      "name": "hello",
      "outputs": [
        {
          "internalType": "string",
          "name": "",
          "type": "string"
        }
      ],
      "stateMutability": "pure",
      "type": "function"
    },
    {
      "inputs": [
        {
          "internalType": "string",
          "name": "_visitor",
          "type": "string"
        }
      ],
      "name": "setUser",
      "outputs": [],
      "stateMutability": "nonpayable",
      "type": "function"
    },
    {
      "inputs": [],
      "name": "visitor",
      "outputs": [
        {
          "internalType": "string",
          "name": "",
          "type": "string"
        }
      ],
      "stateMutability": "view",
      "type": "function"
    }
  ],
  "bytecode": "0x608060405234801561001057600080fd5b506105ea806100206000396000f3fe608060405234801561001057600080fd5b506004361061004c5760003560e01c806319ff1d21146100515780633bc5de301461006f578063d0020fad1461008d578063d4fc3f43146100a9575b600080fd5b6100596100c7565b604051610066919061035d565b60405180910390f35b6100776100e7565b604051610084919061035d565b60405180910390f35b6100a760048036038101906100a291906104c8565b610179565b005b6100b1610193565b6040516100be919061035d565b60405180910390f35b606060405180608001604052806042815260200161057360429139905090565b6060600080546100f690610540565b80601f016020809104026020016040519081016040528092919081815260200182805461012290610540565b801561016f5780601f106101445761010080835404028352916020019161016f565b820191906000526020600020905b81548152906001019060200180831161015257829003601f168201915b5050505050905090565b806000908051906020019061018f929190610221565b5050565b600080546101a090610540565b80601f01602080910402602001604051908101604052809291908181526020018280546101cc90610540565b80156102195780601f106101ee57610100808354040283529160200191610219565b820191906000526020600020905b8154815290600101906020018083116101fc57829003601f168201915b505050505081565b82805461022d90610540565b90600052602060002090601f01602090048101928261024f5760008555610296565b82601f1061026857805160ff1916838001178555610296565b82800160010185558215610296579182015b8281111561029557825182559160200191906001019061027a565b5b5090506102a391906102a7565b5090565b5b808211156102c05760008160009055506001016102a8565b5090565b600081519050919050565b600082825260208201905092915050565b60005b838110156102fe5780820151818401526020810190506102e3565b8381111561030d576000848401525b50505050565b6000601f19601f8301169050919050565b600061032f826102c4565b61033981856102cf565b93506103498185602086016102e0565b61035281610313565b840191505092915050565b600060208201905081810360008301526103778184610324565b905092915050565b6000604051905090565b600080fd5b600080fd5b600080fd5b600080fd5b7f4e487b7100000000000000000000000000000000000000000000000000000000600052604160045260246000fd5b6103d582610313565b810181811067ffffffffffffffff821117156103f4576103f361039d565b5b80604052505050565b600061040761037f565b905061041382826103cc565b919050565b600067ffffffffffffffff8211156104335761043261039d565b5b61043c82610313565b9050602081019050919050565b82818337600083830152505050565b600061046b61046684610418565b6103fd565b90508281526020810184848401111561048757610486610398565b5b610492848285610449565b509392505050565b600082601f8301126104af576104ae610393565b5b81356104bf848260208601610458565b91505092915050565b6000602082840312156104de576104dd610389565b5b600082013567ffffffffffffffff8111156104fc576104fb61038e565b5b6105088482850161049a565b91505092915050565b7f4e487b7100000000000000000000000000000000000000000000000000000000600052602260045260246000fd5b6000600282049050600182168061055857607f821691505b6020821081141561056c5761056b610511565b5b5091905056fe52656d656d62657220546865205374696c6c77696e7465722c20546869732050726f6a6563742049732053636166666f6c646564204279205354314c4c5741544552a2646970667358221220d4a5638ee549d30bb9b4d4dee99352c7772ebe772520ed5a3ba6b00d0abc379464736f6c634300080a0033",
  "linkReferences": {},
  "deployedLinkReferences": {}
}